:100000000C940B010C9433010C9433010C943301C8
:100010000C9433010C9433010C9433010C94330190
:100020000C9433010C9433010C9481010C94D6048C
:100030000C9433010C9433010C9433010C94330170
:100040000C9433010C9433010C9433010C94330160
:100050000C9433010C9433010C9433010C9437014C
:100060000C9433010C944F070C9429070C94330122
:100070000C9433010C9433010C9433010C94330130
:100080000C9433010C9433010C9433010C94330120
:100090000C9433010C9433010C9433010C94330110
:1000A0000C9433010C9433010C9433013F09420941
:1000B00031093509390963096309630946094A09A0
:1000C0004E095409580963095E094D6F64656D2036
:1000D000636F6E66696775726174696F6E203A202E
:1000E0004341544E42315F4D4F44452028204E42FB
:1000F0002D496F54202900547279696E6720746FFE
:1001000020636F6E6E656374206261736520737423
:100110006174696F6E206F66206F70657261746FB5
:10012000722E2E2E00080B000202020100090400AC
:100130000001020200000524001001052401010154
:10014000042402060524060001070581031000406F
:1001500009040100020A0000000705020240000035
:10016000070583024000000403090412010002EFA6
:100170000201404123368000010102030141726403
:1001800075696E6F204C4C430041726475696E6FE7
:10019000204C656F6E6172646F00000000002400E7
:1001A00027002A002D003000000000002500280054
:1001B0002B002E0031000404040404030405020291
:1001C00002020403020202020606060606060404F0
:1001D0000202020404040802011040804010204082
:1001E000804080080204018040201002011080102D
:1001F000204040200000000200090F00000304011D
:10020000000C0000000000000000000000000000E2
:1002100000000000A30F11241FBECFEFDAE0DEBF05
:10022000CDBF26E0AEE9B3E001C01D92AF34B20706
:10023000E1F713E0A0E0B1E0E4E3F7E202C00590EB
:100240000D92AE39B107D9F711E0CBE0D1E004C08F
:100250002197FE010E949110CA30D107C9F70E9470
:100260008D0B0C9498130C9400000E9497101F9211
:100270000F920FB60F9211242F933F938F939F935A
:10028000AF93BF938091A7039091A803A091A90376
:10029000B091AA033091A10323E0230F2D3720F45E
:1002A0000196A11DB11D05C026E8230F0296A11DD0
:1002B000B11D2093A1038093A7039093A803A0935B
:1002C000A903B093AA038091AB039091AC03A091D2
:1002D000AD03B091AE030196A11DB11D8093AB0398
:1002E0009093AC03A093AD03B093AE03BF91AF91D5
:1002F0009F918F913F912F910F900FBE0F901F9064
:1003000018951F920F920FB60F9211242F933F93BF
:100310004F935F936F937F938F939F93AF93BF930D
:10032000CF93EF93FF93C091E1008091E100837F31
:100330008093E100C3FF0FC01092E90081E0809339
:10034000EB001092EC0082E38093ED001092B0037A
:1003500088E08093F000C2FF18C00E94B608809128
:100360009E03882339F080919E03815080939E03E1
:10037000882389F18091AF03882339F08091AF03FE
:1003800081508093AF03882341F1C4FF10C0809156
:10039000E2008E7E81608093E2008091E1008F7E9A
:1003A0008093E10080919F038E7E806111C0C0FF29
:1003B00016C08091E2008E7E80618093E200809181
:1003C000E1008E7E8093E10080919F038E7E8160AC
:1003D00080939F0304C05D9ACDCF289AD6CFFF911A
:1003E000EF91CF91BF91AF919F918F917F916F913D
:1003F0005F914F913F912F910F900FBE0F901F90E3
:1004000018954091A4035091A5032091A203309127
:10041000A30342175307B4F49091E8009570E1F3F9
:100420009091E80092FD19C08093F1008091A4039F
:100430009091A50301968F739927892B19F48EEF5C
:100440008093E8008091A4039091A5030196909376
:10045000A5038093A40381E0089580E00895DF92CE
:10046000EF92FF920F931F93CF93DF93D82EF92E25
:10047000E42E062F10E0C8010196880F0E940102A9
:1004800083E00E940102CD2DDF2D0C0F1D1FC01730
:10049000D10789F0E7FE03C0FE01849101C0888185
:1004A0000E940102F82E80E00E9401028F21219615
:1004B0008111EDCF01C081E0DF91CF911F910F91AC
:1004C000FF90EF90DF900895DF92EF92FF920F93ED
:1004D0001F93CF93DF93D82E8A017B01E40EF51E84
:1004E000EB01CE15DF0571F0D7FE03C0FE0184914C
:1004F00001C088810E94010221968111F2CF8FEF05
:100500009FEF01C0C801DF91CF911F910F91FF9024
:10051000EF90DF900895615030F02091F100FC01E0
:1005200020830196F8CF289884E68093AF0308953E
:10053000CF92DF92EF92FF920F931F93CF93DF93AF
:100540006C017A018B01C0E0D0E0CE15DF0581F0AF
:10055000D8016D918D01D601ED91FC910190F08152
:10056000E02DC6010995892B11F02196EECF7E0171
:10057000C701DF91CF911F910F91FF90EF90DF9016
:10058000CF900895FC01538D448D252F30E0842FAA
:1005900090E0821B930B541710F0CF9608950197AB
:1005A0000895FC01918D828D981761F0828DDF0195
:1005B000A80FB11D5D968C91928D9F5F9F73928F56
:1005C00090E008958FEF9FEF0895FC01918D828D4B
:1005D000981731F0828DE80FF11D858D90E0089518
:1005E0008FEF9FEF0895FC01918D228D892F90E070
:1005F000805C9F4F821B91098F739927089581EB2F
:1006000093E00E94F30221E0892B09F420E0822F7D
:100610000895FC01848DDF01A80FB11DA35ABF4FBF
:100620002C91848D90E001968F739927848FA689F1
:10063000B7892C93A089B1898C9182748C93938D06
:10064000848D981306C00288F389E02D80818F7D08
:1006500080830895EF92FF920F931F93CF93DF93C0
:10066000EC0181E0888F9B8D8C8D981305C0E88903
:10067000F989808185FD26C0F62E0B8D10E00F5F75
:100680001F4F0F731127E02E8C8DE8120CC00FB690
:1006900007FCFACFE889F989808185FFF5CFCE0183
:1006A0000E940903F1CF8B8DFE01E80FF11DE35A83
:1006B000FF4FF0829FB7F8940B8FEA89FB89808106
:1006C000806209C09FB7F894EE89FF896083E8894A
:1006D000F9898081827480839FBF81E090E0DF91FF
:1006E000CF911F910F91FF90EF900895CF93DF93DB
:1006F000EC01888D8823C9F0EA89FB89808185FD1A
:1007000005C0A889B9898C9186FD0FC00FB607FC7A
:10071000F5CF808185FFF2CFA889B9898C9185FFBB
:10072000EDCFCE010E940903E7CFDF91CF9108956D
:1007300080E090E0892B29F00E94FF0281110C9447
:1007400000000895CF93DF931F92CDB7DEB7698382
:10075000DC01ED91FC910280F381E02D41E050E05D
:10076000BE016F5F7F4F09950F90DF91CF91089584
:10077000FC018485958597FD0BC09FB7F89482E0B6
:100780008093E9008091F2009FBF90E00196089568
:100790009FB7F89482E08093E9008091F2009FBFB8
:1007A00090E00895089580E090E008950F931F93DE
:1007B000CF93DF931F92CDB7DEB782E0898342E407
:1007C00050E065E271E080E80E9464020E94000946
:1007D000DC0112960D911C9113970115110589F0FA
:1007E000D801ED91FC910280F381E02DBE016F5F95
:1007F0007F4FC801099597FD04C0F8010085118558
:10080000ECCF89810F90DF91CF911F910F910895C7
:100810008F929F92AF92BF92CF92DF92EF92FF9210
:100820000F931F93CF93DF936C017B018A0180911B
:100830000701882309F45CC08091B003882309F480
:1008400057C080919F0380FF05C08091E0008260C7
:100850008093E000E801B12C8AEFA82E93E0892E66
:100860002AE3922E209711F4BB20D9F10E94EF08C1
:1008700081110AC0AA94AA20D9F161E070E080E059
:1008800090E00E94B409EECF282F30E0C217D307C2
:100890000CF48C2F9FB7F8948092E9002091E80027
:1008A00025FF1DC0282F30E0C21BD30BF70181505C
:1008B00020F041914093F100FACFE20EF31EBB20ED
:1008C00019F09092E8000AC08091E80085FD07C009
:1008D0009092E800BB24B394209709F0B12C9FBFFD
:1008E000C1CF5D9884E680939E031016110644F0F4
:1008F00081E090E0F6019383828380E090E001C084
:10090000C801DF91CF911F910F91FF90EF90DF9081
:10091000CF90BF90AF909F908F9008950E94EF0866
:1009200090E008950C94B6080F931F93CF93DF9334
:100930001F92CDB7DEB78C01FC018485958597FFAA
:100940000EC0CE0101960E94C108019719F4898159
:1009500090E002C08FEF9FEFF80195878487F80140
:10096000848595850F90DF91CF911F910F91089508
:10097000CF93DF931F92CDB7DEB7FC0184859585B9
:1009800097FD05C02FEF3FEF358724870BC0CE01C1
:1009900001960E94C108019719F4898190E002C074
:1009A0008FEF9FEF0F90DF91CF9108951F920F92DD
:1009B0000FB60F921124CF92DF92EF92FF920F9316
:1009C0001F932F933F934F935F936F937F938F93D7
:1009D0009F93AF93BF93EF93FF93CF93DF93CDB7E5
:1009E000DEB76C97DEBFCDBF1092E9008091E800C2
:1009F00083FFFBC168E0CE0145960E948B0282EF27
:100A00008093E8008D8987FF05C09091E80090FFF2
:100A1000FCCF03C09EEF9093E800982F907609F0EA
:100A2000C6C09E894F89588D2F89F88C91110CC0B2
:100A3000803829F48091A0038093F10002C01092C5
:100A4000F1001092F10045C1913051F4811141C182
:100A50004130510509F03DC18091A0038D7F0BC04D
:100A6000933061F4811135C14130510509F031C134
:100A70008091A00382608093A0032BC1953049F43C
:100A80008091E80080FFFCCF822F80688093E30094
:100A900020C1963009F05EC00B8D1C8D22E01092B3
:100AA000E9001092A5031092A403F21232C0109232
:100AB000A3031092A2030E94D60399E0BE016F5FC8
:100AC0007F4FDB01E92F1D92EA95E9F79983FA82BE
:100AD00091E09E8390EA98879AEF99872091A403EA
:100AE0003091A503275F3F4F3C832B838D8310926A
:100AF000E9001092A5031092A4031093A30300939E
:100B0000A20349E050E080E00E9464020E94D60304
:100B1000E0C01093A3030093A2030E940009DC012C
:100B200012960D911C9113970115110509F4BBC084
:100B3000D801ED91FC910480F581E02DBE016B5E42
:100B40007F4FC8010995009709F0C7C0F8010085DB
:100B50001185EACF973009F445C1983021F481E03E
:100B60008093F100B6C0993009F0B3C0837009F0EA
:100B700039C1E0E2F1E081E031E096E3208121112A
:100B800009C08EE78093EA001092EA008F89809373
:100B9000B0039FC08093E9003093EB002191209334
:100BA000EC009093ED008F5F873041F7EACF8B8D9B
:100BB0009C8D1092E9001092A5031092A4039093CB
:100BC000A3038093A203898D811153C08E899D89CF
:100BD000913A49F4813209F005C147E050E060E004
:100BE00071E080E0BBC0913209F0FCC0833269F44F
:100BF0008F89988DA0E0B0E080931B0190931C0139
:100C0000A0931D01B0931E0164C0803269F48091ED
:100C1000E80082FFFCCF67E080E091E00E948B0259
:100C20008BEF8093E80055C0823209F052C08F8963
:100C300080930701EEEFFFE7859194918B3F9C4DE8
:100C400019F0E0E0F8E002C0EEEFFAE08091000178
:100C500090910101A0910201B0910301803B944069
:100C6000A105B10509F09EC08091070180FF79C000
:100C700099C00E940009FC01028113810115110530
:100C800009F4B0C0D801ED91FC910190F081E02D04
:100C9000BE016B5E7F4FC801099581111AC0F80132
:100CA00000851185EBCFF1E0FF1609F44EC0F3E0AB
:100CB000FF1298C08F89882309F44AC0823089F4D2
:100CC00040E860E189E891E00E942F02882309F45E
:100CD00089C08EEF8093E80088C018161906CCF3FF
:100CE00081C0813029F440E86BE08DE791E0ECCFE2
:100CF000833009F077C00E940009DC011296ED9064
:100D0000FC9013978E010F5F1F4F6801E114F104EF
:100D100079F0D701ED91FC910680F781E02DB801C3
:100D2000C7010995080F111DF701E084F184EECF8A
:100D3000D8011C92F60101900020E9F73197BF011C
:100D40006C197D0940E0C601BFCF6BE671E002C0BF
:100D500067E671E0FB01449150E080E80E94640284
:100D6000B8CFEE3F2AE0F20751F0808191818737BA
:100D7000A7E79A0721F09093FF0A8093FE0A87E77E
:100D800097E791838083809160008093A6039BE026
:100D900088E10FB6F894A895809360000FBE9093F9
:100DA000600097CF808191818737974709F091CF75
:100DB000A895809160008861809360008091A6036F
:100DC00080936000EE3FBAE0FB0739F08091FE0AA5
:100DD0009091FF0A918380837CCF1092FF0A10923A
:100DE000FE0A77CF81E28093EB006C960FB6F89401
:100DF000DEBF0FBECDBFDF91CF91FF91EF91BF91CD
:100E0000AF919F918F917F916F915F914F913F91A2
:100E10002F911F910F91FF90EF90DF90CF900F9047
:100E20000FBE0F901F9018956115710579F0FB01A9
:100E300001900020E9F73197AF01461B570BDC0109
:100E4000ED91FC910280F381E02D099480E090E027
:100E500008951F920F920FB60F9211242F933F9374
:100E60004F935F936F937F938F939F93AF93BF93B2
:100E7000EF93FF9381EB93E00E940903FF91EF91C1
:100E8000BF91AF919F918F917F916F915F914F91A2
:100E90003F912F910F900FBE0F901F9018951F92AA
:100EA0000F920FB60F9211242F938F939F93EF936E
:100EB000FF93E091C103F091C2038081E091C703E9
:100EC000F091C80382FD12C090818091CA038F5FA8
:100ED0008F732091CB03821751F0E091CA03F0E0A9
:100EE000EF54FC4F958F8093CA0301C08081FF911E
:100EF000EF919F918F912F910F900FBE0F901F90A8
:100F000018953FB7F8948091AB039091AC03A091F2
:100F1000AD03B091AE0326B5A89B05C02F3F19F0D5
:100F20000196A11DB11D3FBFBA2FA92F982F882769
:100F3000820F911DA11DB11DBC01CD0142E0660FC4
:100F4000771F881F991F4A95D1F70895CF93DF9394
:100F5000BC018EE494E00E941407EC0166E072E0AC
:100F60008EE494E00E9414078C0F9D1FDF91CF91B7
:100F70000895CF93DF93EC010E94A607BE0181EB99
:100F800093E00E94140769E373E081EB93E0DF9143
:100F9000CF910C9414070F931F93CF93DF938C0181
:100FA000C0E0D0E0F801EC0FFD1F6491662341F032
:100FB0008EE494E00E94A203892B11F02196F2CFD7
:100FC00066E072E08EE494E00E9414078C0F9D1F8F
:100FD000DF91CF911F910F910895CF92DF92EF9201
:100FE000FF926B017C01E091C103F091C20382E0AA
:100FF0008083C11481EED806E104F104B1F060E011
:1010000079E08DE390E0A70196010E946F10DA016C
:10101000C9010197A109B109B695A795979587953B
:101020009C01211580E13807B8F0E091C103F091EF
:10103000C203108260E874E88EE190E0A701960197
:101040000E946F10DA01C9010197A109B109B69593
:10105000A795979587959C01E091BD03F091BE03FC
:101060003083E091BF03F091C00320831092C90345
:10107000E091C503F091C60386E08083E091C3034D
:10108000F091C403808180618083E091C303F0917B
:10109000C403808188608083E091C303F091C4031E
:1010A000808180688083E091C303F091C4038081D4
:1010B0008F7D8083FF90EF90DF90CF9008958F9287
:1010C0009F92AF92BF920F931F93CF93DF93CDB7B1
:1010D000DEB7A1970FB6F894DEBF0FBECDBF19A241
:1010E000423008F44AE08E010F5D1F4F842E912C90
:1010F000A12CB12CA50194010E946F10E62FB9011B
:10110000CA0101501109EA3014F4E05D01C0E95C44
:10111000D801EC93232B242B252B61F7B8018EE407
:1011200094E00E941407A1960FB6F894DEBF0FBE9C
:10113000CDBFDF91CF911F910F91BF90AF909F9046
:101140008F900895CF93DF93BC0180E090E04AE058
:101150000E945F08EC0166E072E08EE494E00E9479
:1011600014078C0F9D1FDF91CF91089583E080932A
:10117000E9008091F200882319F08AE38093E80067
:1011800008952091B003211103C08FEF9FEF0895C0
:101190005FB7F89422E02093E9002091F20030E05C
:1011A0001216130614F421E030E0422FFC0184E60D
:1011B000415038F028988093AF039091F1009193BB
:1011C000F7CF2115310521F08091F200882319F025
:1011D0005FBFC90108958BE68093E800F9CF2FB770
:1011E000F89483E08093E9009091E800892F807261
:1011F00095FF04C09091F20080E4891B2FBF0895F1
:1012000080913F0681110DC082E080933B0684E00F
:1012100080933C0610923E0610923D0681E080933A
:101220003F068BE396E00895362F90E0FC01EC50EA
:10123000FE4F4491FC01EB52FE4F2491FC01EA5415
:10124000FE4F8491882309F452C04423E1F150E019
:10125000FA013197EF30F105B0F5EA5AFF4F0C94DF
:101260009110909180009F7707C0909180009F7DA2
:1012700003C090918000977F9093800024C094B524
:101280009F7702C094B59F7D94BD1DC09091900042
:101290009F7707C0909190009F7D03C09091900030
:1012A000977F909390000FC09091C0009F7703C0EC
:1012B0009091C0009F7D9093C00005C09091C200A6
:1012C000977F9093C200E82FF0E0EE0FFF1FE855E4
:1012D000FE4FA591B4919FB7F894311104C08C9141
:1012E0002095282302C0EC912E2B2C939FBF0895AC
:1012F000CF93DF9390E0FC01EB52FE4F2491FC0171
:10130000EA54FE4F8491882361F190E0880F991F81
:10131000FC01E656FE4FC591D491FC01E855FE4F05
:10132000A591B491611109C09FB7F8948881209567
:1013300082238883EC912E230BC0623061F49FB727
:10134000F8948881322F309583238883EC912E2B5B
:101350002C939FBF06C08FB7F894E8812E2B28836B
:101360008FBFDF91CF9108958F929F92AF92BF92DE
:10137000CF92DF92EF92FF926B017C010E94810776
:101380004B015C01C114D104E104F104F1F00E94AD
:101390008107DC01CB0188199909AA09BB09883E9C
:1013A0009340A105B10570F321E0C21AD108E1080C
:1013B000F10888EE880E83E0981EA11CB11CC114B0
:1013C000D104E104F10419F7DDCFFF90EF90DF9035
:1013D000CF90BF90AF909F908F9008952FB7F894C3
:1013E0006091A7037091A8038091A9039091AA032B
:1013F0002FBF08954F925F926F927F929F92AF920C
:10140000BF92CF92DF92EF92FF920F931F93CF93F1
:10141000DF93CDB7DEB7C85CD1090FB6F894DEBF55
:101420000FBECDBF7C015B018E010F5F1F4F88ECAB
:10143000F80111928A95E9F781EB93E00E94760317
:10144000C7010E94B9070E94EE092B013C010E94CE
:10145000EE09AB01BC014419550966097709809171
:10146000390690913A06A0E0B0E084179507A607E8
:10147000B70738F4C7010E94B9070E94EE092B0193
:101480003C01680181EB93E00E94F302892BA1F0FB
:1014900081EB93E00E94D102982E682F8EE494E0B5
:1014A0000E94A203F60191926F0162E070E080E079
:1014B00090E00E94B409E6CFB501C8010E94B510C2
:1014C000892B29F280E090E0C853DF4F0FB6F894E3
:1014D000DEBF0FBECDBFDF91CF911F910F91FF9067
:1014E000EF90DF90CF90BF90AF909F907F906F90E4
:1014F0005F904F9008956BE373E08EE994E00E9453
:10150000AE1061EE75E08EE994E00E94A31069E5EB
:1015100073E08EE994E00E94A31061E376E08EE927
:1015200094E00E94A3106EE573E08EE994E00E94BF
:10153000A31064E671E08EE994E00E94FA098FEF4F
:10154000EEE9F4E0DF011D928A95E9F766E072E0CA
:1015500081E693E00C94FA0964E671E080E793E099
:101560000E94FA0968EE73E080E090E00E94B409FE
:1015700066E072E08CE793E00C94FA0964E671E0AF
:1015800087E893E00C94FA09BF92CF92DF92EF9232
:10159000FF920F931F93CF93DF938C0181EB93E026
:1015A0000E9476038EE893E00E94B9070E94EE093C
:1015B0006B017C010E94EE09AB01BC014C195D0975
:1015C0006E097F098091390690913A06A0E0B0E05B
:1015D00084179507A607B70740F48EE893E00E94AA
:1015E000B9070E94EE096B017C01C02FD12F81EB5E
:1015F00093E00E94F302892B91F081EB93E00E942B
:10160000D102B82E682F8EE494E00E94A203B99212
:1016100062E070E080E090E00E94B409E8CF64E608
:1016200071E0C8010E94B510892B21F2DF91CF91A2
:101630001F910F91FF90EF90DF90CF90BF90089592
:101640000F931F93CF93DF93CDB7DEB764970FB699
:10165000F894DEBF0FBECDBF8E010F5F1F4F84E138
:10166000F80111928A95E9F7C8010E94C40A69E954
:1016700073E0C8010E940410892B59F06AE973E0F5
:1016800080E090E00E940410009719F00E94E60F9D
:1016900000C064960FB6F894DEBF0FBECDBFDF91D9
:1016A000CF911F910F9108950F931F93CF93DF93C5
:1016B000CDB7DEB764970FB6F894DEBF0FBECDBFCF
:1016C0008E010F5F1F4F84E1F80111928A95E9F7AF
:1016D000C8010E94C40A69EF72E08EE494E00E949F
:1016E000140769E973E0C8010E9404108C01009797
:1016F00049F00E94A607C8010E94A607C8010E94DF
:10170000E60F00C064960FB6F894DEBF0FBECDBFE3
:10171000DF91CF911F910F910895CF93DF93CDB7B4
:10172000DEB7C25DD1090FB6F894DEBF0FBECDBFE4
:10173000789484B5826084BD84B5816084BD85B5AC
:10174000826085BD85B5816085BD80916E008160B8
:1017500080936E001092810080918100826080935E
:101760008100809181008160809381008091800060
:1017700081608093800080919100826080939100CD
:1017800080919100816080939100809190008160B0
:10179000809390008091C10084608093C10080910B
:1017A000C10082608093C1008091C10081608093FC
:1017B000C1008091C30081608093C3008091C0000C
:1017C00082608093C0008091C20081608093C200DB
:1017D00080917A00846080937A0080917A008260A0
:1017E00080937A0080917A00816080937A00809162
:1017F0007A00806880937A001092B0031092A00360
:1018000010929F038091D70081608093D70080EA77
:101810008093D80089B5806189BD89B5826089BD12
:1018200009B400FEFDCF61E070E080E090E00E942E
:10183000B4098091D8008F7C80618093D80080911A
:10184000E000807F8093E0008091E1008E7E8093B5
:10185000E1008DE08093E200559A209A61E088E0F3
:101860000E9478098FEF9FEF90935B0480935A0456
:10187000109107016AE070E080E090E00E94B409F6
:101880001123B1F38AE491E00E94A60761E08FE0A2
:101890000E94780960E08FE00E94140961E08FE007
:1018A0000E94140961E088E00E94780960E087E006
:1018B0000E94780961E084E00E94780961E084E098
:1018C0000E94140960E875E280E090E00E94ED0754
:1018D0008FEF9FEF90935B0480935A0461E086E062
:1018E0000E9478096AE070E080E090E00E94B4090C
:1018F00061E086E00E94140964EF71E080E090E00E
:101900000E94B40960E086E00E9414096AE070E079
:1019100080E090E00E94B40961E085E00E94140933
:1019200064EF71E080E090E00E94B40960E085E03F
:101930000E94140980E591E00E94A60764EF71E01F
:1019400080E090E00E94B40968EB7BE080E090E0EA
:101950000E94B40964E671E089E691E00E94FA0908
:1019600064E671E08EE691E00E94FA0964E671E0B7
:1019700083E791E00E94FA0981EB93E00E947603ED
:1019800060E08FE00E9414090EE914E08FEFF80187
:1019900011928A95E9F785E28F9380E88F9386E725
:1019A00091E09F938F931F930F930E94E51066E23F
:1019B00073E0C8010E94FA0981EB93E00E9476036C
:1019C000E091C303F091C40380818F7E8083E09116
:1019D000C303F091C4038081877F8083E091C303B8
:1019E000F091C40380818F778083E091C303F091ED
:1019F000C40380818F7D80838091CB038093CA0351
:101A000060E875E280E090E00E94ED0764E671E036
:101A100083E891E00E94FA0964E671E08BE891E0C6
:101A20000E94FA0964E671E083E991E00E94FA09F4
:101A30006DE071E081EE95E00E94AE1068E071E02B
:101A400081E396E00E94AE1064E671E08BE991E0DC
:101A50000E94FA0964E671E084EB91E00E94FA09C1
:101A600064E671E08DEC91E00E94FA098AEC90E066
:101A70000E94CB0780E58F9389E78F9385EE91E0F5
:101A80009F938F931F930F930E94CF1064E671E092
:101A9000C8010E94FA0988EF91E00E94A60760E061
:101AA0008FE00E94140961E08FE00E94140987EF23
:101AB00090E00E94CB076DEF71E089E092E00E9418
:101AC000FA090E94BE0A81EB93E00E94760360E06F
:101AD0008FE00E9414096AE070E080E090E00E94CC
:101AE000B4090E94BE0A66E273E083E192E00E94BC
:101AF000FA0961E08FE00E94140966E072E08EE16D
:101B000092E00E94FA090E94AC0A66E072E08BE261
:101B100092E00E94FA0964E671E088E392E00E9494
:101B2000FA0964E671E084E492E00E94FA0964E64E
:101B300071E080E592E00E94FA0964E671E08BE5CD
:101B400092E00E94FA0964E671E088E392E00E9464
:101B5000FA0964E671E080E792E00E94FA0964E61F
:101B600071E083E992E00E94FA090E947B0A81EB0E
:101B700093E00E94760360E08FE00E9414098DE9F3
:101B800092E00E94A6070FB6F894DEBF0FBECDBF4D
:101B90001E0139EC230E311C8E010F5F1F4F88EEA2
:101BA00093E090933A068093390661E088E00E94C2
:101BB000140968EC70E080E090E00E94B40960E0F5
:101BC00088E00E9414098BEA92E00E94A60764E66E
:101BD00071E08EEB92E00E94FA0964E671E080ED1C
:101BE00092E00E94FA090E94BE0A0E94BE0A64E6C0
:101BF00071E088ED92E00E94FA0964E671E083EEFC
:101C000092E00E94FA098DEE92E00E94A60764E637
:101C100071E080E093E00E94FA090E94540B0E9458
:101C2000200B412C512C32014394CF52DF4F59826B
:101C30004882C15DD04066E072E08EE192E00E9491
:101C4000FA090E94540B0E94A2080E94200B0E94D5
:101C5000A2080E94AC0A0E947B0A80E29EE4909354
:101C60003A0680933906F10124E011922A95E9F7AA
:101C70005F924F928CE093E09F938F933F922F92CD
:101C80000E94E5104AE0C301B2010E945F0866E0CD
:101C900072E08EE494E00E941407C1010E94A6073E
:101CA000EEE9F4E02FEF11922A95E9F76FE073E087
:101CB0008EE994E00E94AE10B1018EE994E00E949A
:101CC000A3106AE973E08EE994E00E94A31061EE2C
:101CD00075E08EE994E00E94A3106CE173E08EE958
:101CE00094E00E94A31061E376E08EE994E00E9404
:101CF000A3108EE994E00E94A6076FE173E08EE9DD
:101D000094E00E94FA0972010F900F900F900F90CB
:101D10000F900F90C153DF4F19821882CF5CD040D3
:101D20006AE070E080E090E00E94B40931EAE316D6
:101D3000F1048CF040EA50E061E670E08EE994E056
:101D40000E949C1010923E056EE974E081EB93E0D6
:101D50000E94140783C0A70161E670E08EE994E059
:101D60000E949C10F701E256FB4F1082F80128EC0C
:101D700011922A95E9F781EB93E00E9476036EE9D0
:101D800074E081EB93E00E9414070E94EE094B017E
:101D90005C01C12CD12C0E94EE09AB01BC01481999
:101DA00059096A097B098091390690913A06A0E0A9
:101DB000B0E084179507A607B70760F46EE974E0F2
:101DC00081EB93E00E9414070E94EE094B015C0135
:101DD000C12CD12CC8018C0D9D1DC353DF4F99839D
:101DE0008883CD5CD040C353DF4FC880D980CD5CA1
:101DF000D040C01AD10A81EB93E00E94F302892BF4
:101E000029F181EB93E00E94D102D82E682F8EE455
:101E100094E00E94A203C353DF4FE881F981CD5CB7
:101E2000D040D192C353DF4FF983E883CD5CD040DB
:101E300061E070E080E090E00E94B40961E273E04C
:101E4000C8010E94B510892B71F208C061E273E0ED
:101E5000C8010E94B510892B09F49DCFC153DF4FF3
:101E600028813981CF5CD04020563F4FC153DF4F8E
:101E700039832883CF5CD04030EAE31AF108C1539C
:101E8000DF4F88819981CF5CD040CF52DF4FE8810E
:101E9000F981C15DD0408E179F070CF441CF66E0F9
:101EA00072E08BE292E00E94FA0966E072E08EE155
:101EB00092E00E94FA0981EB93E00E9476030E946F
:101EC000B60864E671E089E293E00E94FA0984E3CF
:101ED00093E00E94A60760ED77E080E090E00E942A
:101EE000B4090E94540B0E94A2080E94200B0E9479
:101EF000A20860EE7EE280E090E00E94B409FAE081
:101F00004F0E511C611C711C25EB421625E0520638
:101F10006104710409F089CE60E47DE083E090E023
:101F20000E94B40960E086E00E94140964E670E053
:101F300080E090E00E94B40961E086E00E9414090C
:101F40000E9498032CCEE1EBF3E01382128288EE1C
:101F500093E0A0E0B0E084839583A683B7832AE270
:101F600031E0318320832DEC30E0358724872CEC61
:101F700030E03787268728EC30E0318B208B29EC46
:101F800030E0338B228B2AEC30E0358B248B2EEC27
:101F900030E0378B268B118E128E138E148EEEE46A
:101FA000F4E01382128284839583A683B7838CE343
:101FB00091E0918380838FEF9FEF9587848788EEF0
:101FC00093E090933A06809339060895FC018827A0
:101FD0009927E89421912032E9F3293010F02E302E
:101FE000C8F32B3241F02D3239F4689404C00E94BA
:101FF0003010820F911D219120532A30C0F31EF41E
:10200000909581959F4F089547E456E00E940910EE
:102010000895FA01A191B081009719F41097E1F0A9
:10202000CD01DC01CD010D90002011F4C00113C0E1
:10203000FB012191222319F02015D9F7F3CFFB01E1
:102040002191201519F41E92119606C02223C1F782
:102050000D900020A1F7D001FA01A193B08308955B
:102060007AE0979F902D879F802D910D11240895E0
:102070002F923F924F925F926F927F928F929F9298
:10208000AF92BF92CF92DF92EF92FF920F931F9386
:10209000CF93DF93CDB7DEB7CA1BDB0B0FB6F89437
:1020A000DEBF0FBECDBF09942A88398848885F8477
:1020B0006E847D848C849B84AA84B984C884DF80E8
:1020C000EE80FD800C811B81AA81B981CE0FD11DCC
:1020D0000FB6F894DEBF0FBECDBFED010895A1E2AB
:1020E0001A2EAA1BBB1BFD010DC0AA1FBB1FEE1F92
:1020F000FF1FA217B307E407F50720F0A21BB30BDD
:10210000E40BF50B661F771F881F991F1A9469F758
:1021100060957095809590959B01AC01BD01CF01B4
:102120000895EE0FFF1F0590F491E02D099481E0D2
:1021300090E0F8940C949813DC0101C06D93415029
:102140005040E0F70895FB01DC010D900020E9F715
:10215000119701900D920020E1F70895FB01DC0139
:1021600001900D920020E1F70895FB015191552354
:10217000A9F0BF01DC014D9145174111E1F759F478
:10218000CD010190002049F04D9140154111C9F356
:10219000FB014111EFCF81E090E001970895A0E0AD
:1021A000B0E0E5EDF0E10C944810AE014B5F5F4FFD
:1021B000FA0161917191AF0180914B0690914C06AB
:1021C0000E940711E2E00C946410AEE0B0E0EBEE88
:1021D000F0E10C9446100D891E8986E08C831A83E9
:1021E00009838FEF9FE79E838D83AE01475E5F4F2C
:1021F0006F89788DCE0101960E940711EF81F885D5
:10220000E00FF11F10822E96E4E00C946210ABE018
:10221000B0E0EDE0F1E10C9438106C017B018A0133
:10222000FC0117821682838181FFCCC1CE01019609
:102230003C01F6019381F70193FD859193FF819114
:102240007F01882309F4BAC1853239F493FD859161
:1022500093FF81917F01853229F4B60190E00E94BD
:10226000FE12E7CF912C212C312CFFE1F315D8F091
:102270008B3279F038F4803279F08332A1F4232D57
:1022800020611DC08D3261F0803369F4232D2160FF
:1022900016C0832D8260382EE32DE4603E2E2AC0C6
:1022A000F32DF8601DC037FC2DC020ED280F2A301B
:1022B00040F08E32B9F436FC81C1232D2064322ED9
:1022C00019C036FE06C08AE0989E200D1124922E79
:1022D00011C0EAE02E9E200D1124222EF32DF06273
:1022E0003F2E08C08C3621F4832D8068382E02C022
:1022F000883641F4F70193FD859193FF81917F0129
:102300008111B3CF982F9F7D9554933028F40C5FA3
:102310001F4F9FE399830DC0833631F0833771F0EF
:10232000833509F059C021C0F801808189830E5F8F
:102330001F4F88248394912C530113C02801F2E08D
:102340004F0E511CF801A080B18036FE03C0692DEC
:1023500070E002C06FEF7FEFC5010E94F3124C01E5
:102360008201F32DFF773F2E16C0280122E0420E96
:10237000511CF801A080B18036FE03C0692D70E0C9
:1023800002C06FEF7FEFC5010E94E8124C01F32DF0
:10239000F0683F2E820133FC1BC0822D90E088162E
:1023A0009906B0F4B60180E290E00E94FE122A94F1
:1023B000F4CFF50137FC859137FE81915F01B601BD
:1023C00090E00E94FE1221102A9421E0821A9108C6
:1023D0008114910471F7E8C0843611F0893641F513
:1023E000F80137FE07C060817181828193810C5FA3
:1023F0001F4F08C060817181072E000C880B990B5C
:102400000E5F1F4FF32DFF763F2E97FF09C090956B
:102410008095709561957F4F8F4F9F4FF0683F2E4D
:102420002AE030E0A3010E943A13882E861845C0A6
:10243000853731F4232D2F7EB22E2AE030E025C0DF
:10244000932D997FB92E8F36C1F018F4883579F025
:10245000B5C0803719F0883721F0B0C0E92FE061AE
:10246000BE2EB4FE0DC0FB2DF460BF2E09C034FE9D
:102470000AC0292F2660B22E06C028E030E005C031
:1024800020E130E002C020E132E0F801B7FE07C0F1
:1024900060817181828193810C5F1F4F06C06081D2
:1024A000718180E090E00E5F1F4FA3010E943A13FC
:1024B000882E8618FB2DFF773F2E36FE0DC0232D6C
:1024C0002E7FA22E891458F434FE0BC032FC09C0B2
:1024D000832D8E7EA82E05C0B82CA32C03C0B82C4B
:1024E00001C0B92CA4FE0FC0FE01E80DF11D8081D2
:1024F000803321F49A2D997EA92E09C0A2FE06C030
:10250000B394B39404C08A2D867809F0B394A3FCE5
:1025100011C0A0FE06C0B21488F4280C922C9B189F
:102520000EC0B21460F4B60180E290E00E94FE1288
:10253000B394F7CFB21418F42B1802C0982C212CA6
:10254000A4FE10C0B60180E390E00E94FE12A2FE3D
:1025500017C0A1FC03C088E790E002C088E590E0C6
:10256000B6010CC08A2D867859F0A1FE02C08BE21C
:1025700001C080E2A7FC8DE2B60190E00E94FE124D
:10258000891438F4B60180E390E00E94FE129A9418
:10259000F7CF8A94F301E80DF11D8081B60190E038
:1025A0000E94FE128110F5CF222009F442CEB6011E
:1025B00080E290E00E94FE122A94F6CFF601868116
:1025C000978102C08FEF9FEF2B96E2E10C9454109D
:1025D000FC010590615070400110D8F780959095EE
:1025E0008E0F9F1F0895FC016150704001900110F3
:1025F000D8F7809590958E0F9F1F08950F931F9386
:10260000CF93DF93FB01238121FD03C08FEF9FEF69
:102610002CC022FF16C04681578124813581421784
:10262000530744F4A081B1819D012F5F3F4F318357
:1026300020838C93268137812F5F3F4F37832683FA
:1026400014C08B01EC01FB010084F185E02D09959C
:10265000892BE1F6D80116968D919C9117970196DA
:1026600017969C938E931697CE01DF91CF911F9171
:102670000F910895FA01AA27283051F1203181F1F4
:10268000E8946F936E7F6E5F7F4F8F4F9F4FAF4F7A
:10269000B1E03ED0B4E03CD0670F781F891F9A1F8D
:1026A000A11D680F791F8A1F911DA11D6A0F711D41
:1026B000811D911DA11D20D009F468943F912AE04D
:1026C000269F11243019305D3193DEF6CF01089535
:1026D000462F4770405D4193B3E00FD0C9F7F6CF66
:1026E000462F4F70405D4A3318F0495D31FD40522E
:1026F000419302D0A9F7EACFB4E0A69597958795C4
:1027000077956795BA95C9F70097610571050895A2
:102710009B01AC010A2E069457954795379527954E
:10272000BA95C9F7620F731F841F951FA01D0895E6
:04273000F894FFCF4B
:1027340000E1000000000000383839310034302E48
:1027440036382E3137322E31383700FFFFFFFF0085
:10275400C18081000000000000002A039802C20228
:102764007603F302D102E50200000000A20308048C
:102774008E049204B803B8049404737461727400F0
:102784004D6F64756C6520696E697469616C697AF2
:10279400696E67004F4B0D0A0041544531004154A6
:1027A40045300041540041542B4950523D25753B5E
:1027B40026570041542B4347534E0041542B434763
:1027C4004D520041542B43474D4D0041542B51432E
:1027D40046473D226E777363616E736571222C30B8
:1027E400332C310041542B514346473D226E7773BD
:1027F40063616E6D6F6465222C332C310041542B60
:10280400514346473D22696F746F706D6F64652252
:102814002C312C310041542B434F50533D312C3239
:102824002C222564222C3900646F6E65002B4347EB
:102834004154543A20310D0A0041542B434741542A
:10284400543F0041542B514E57494E464F0041547A
:102854002B514944454143543D310041542B514986
:10286400434C4F53453D310041542B43454452584A
:102874005244500041542B4345445258533D3F0069
:1028840041542B4345445258533F0041542B434534
:10289400445258533D312C352C22303030312200F3
:1028A40041542B5150534D533D312C2C2C2230305C
:1028B400303030313030222C22303030313131312F
:1028C40030220041542B5150534D533F00736574D3
:1028D40074696E67732065647278002D2D2D4D45E3
:1028E40041535552454D454E54532D2D2D004154C1
:1028F4002B514346473D2263656C6576656C220027
:1029040041542B514353510041542B4345524547A5
:102914003D340041542B43455245473F002D2D2D56
:102924002D2D2D2D2D2D2D2D2D2D2D2D2D2D2D0000
:1029340041542B514744434E543D300025640041DB
:10294400542B514953454E443D312C00222C003E1A
:102954000053454E44204F4B0041542B51435343A5
:102964004F4E3F0053656E74000D0041542B514986
:102974004F50454E3D312C312C2255445020534567
:102984005256494345222C2200222C302C002C3054
:102994000041542B514953544154453D302C31008E
:1029A40041542B5149435347503D310041542B511D
:1029B400494143543D310041542B43535100415448
:0E29C4002B514744434E543F00202C2200006C
:2070000055C000006EC000006CC000006AC0000068C0000066C0000064C0000062C0000043
:2070200060C000005EC00000F2C400005AC0000058C0000056C0000054C0000052C00000EE
:2070400050C0000078C000004CC000004AC0000048C0000046C0000044C0000042C00000BE
:2070600040C000003EC000003CC000003AC0000038C0000036C0000034C0000032C0000048
:2070800030C000002EC000002CC000002AC0000028C0000026C0000024C0000022C00000A8
:2070A00020C000001EC000001CC0000011241FBECFEFDAE0DEBFCDBF11E0A0E0B1E0E2E3BC
:2070C000FFE702C005900D92A83AB107D9F711E0A8EAB1E001C01D92AE3BB107E1F78FD30B
:2070E00026C78ECFF89410926F0010928100109285001092840081E085BF15BE47985D9AEB
:20710000289A0C94000008952091B2013091B3012F5F3F4F3093B3012093B201932F37FFA6
:2071200003C08EEF831B982F990F921710F447980895479A08951F920F920FB60F9211246E
:207140002F938F939F93EF93FF9310928500109284008091A8019091A901009741F00197D3
:207160009093A9018093A801892B09F45D9A8091AA019091AB01009741F001979093AB0126
:207180008093AA01892B09F4289AE0E0F0E0859194918F5F9F4F49F08091AC019091AD0151
:2071A00001969093AD018093AC01FF91EF919F918F912F910F900FBE0F901F90189584E0BC
:2071C0008093E9000DC08091E8008B778093E80003C08EB3882351F08091E80082FFF9CFBE
:2071E0008091E80085FFEFCF8091F1000895982F83E08093E9008091E80085FD0DC0809136
:20720000E8008E778093E80003C08EB3882369F08091E80080FFF9CF9093F1005D9884E6CB
:2072200090E09093A9018093A80108954F925F926F927F928F929F92AF92BF92CF92DF921E
:20724000EF92FF920F931F93CF93DF9384E08093E9008091E80082FF57C2289884E690E067
:207260009093AB018093AA01AADF182F853481F48CE49DE19093AD018093AC0107B600FC4B
:20728000FDCFF999FECF81E180935700E89503C0843519F494DF8DE00DC28C34E1F38035F9
:2072A000D1F3843721F484E4A2DF80E003C2813611F489E5FFC18134B1F481DF182F7FDFE3
:2072C00090E0880F991FAA2797FDA095BA2F312F330F20E0442737FD4095542F822B932B68
:2072E000A42BB52BB8C1803711F483E5E3C1833549F4C0E0D1E089917ADF21E0C730D20714
:20730000D1F7D9C1863521F481E371DF80E3D2C1833731F487E86BDF85E969DF8EE1CAC149
:207320008536B9F4E0E0F0E093E085E090935700E89507B600FCFDCF80935700E89507B65D
:2073400000FCFDCFE058FF4FA0E7E030FA0771F7A2CF823739F4E1E0F0E089E08093570024
:207360008491A8C1863439F4E0E0F0E089E08093570084919FC18E3439F4E3E0F0E089E0E5
:2073800080935700849196C1813539F4E2E0F0E089E08093570084918DC1823631F489E521
:2073A00026DF80E024DF80E885C1823419F0873609F0E5C01092AD011092AC0100DF082FE8
:2073C000FEDEF82EFCDE682E8554823008F071C1902F80E0CF2DD0E0C82BD92B10926F00B3
:2073E000173609F04BC081E180935700E895DD24CC24C3943FC0E090AE01F090AF010091CC
:20740000B0011091B101B6E46B16D9F4ED2DF0E0EE29FF29E4918E2FEADEDD2081F082E08D
:2074200090E0A0E0B0E0E80EF91E0A1F1B1FE092AE01F092AF010093B0011093B101DC2470
:2074400018C0D801C701B695A7959795879559D5CEDE82E090E0A0E0B0E0E80EF91E0A1FF2
:207460001B1FE092AE01F092AF010093B0011093B1012197209709F0BECF7DC08090AE01F5
:207480009090AF01A090B001B090B10196E4691609F05DC083E0F40180935700E89507B63E
:2074A00000FCFDCF54C0F6E46F1661F5772031F1E090AE01F090AF010091B0011091B1019E
:2074C0007EDED82ECC24852D90E08C299D29F7010C0140925700E895112482E090E0A0E08B
:2074E000B0E0E80EF91E0A1F1B1FE092AE01F092AF010093B0011093B10102C060DE582E1A
:20750000742423C0E090AE01F090AF010091B0011091B10116950795F794E79450DE682FFA
:20752000C701F7D48091AE019091AF01A091B001B091B1010296A11DB11D8093AE01909349
:20754000AF01A093B001B093B101219704C05524772444244394209709F0A5CF96E46916B6
:2075600041F485E0F40180935700E89507B600FCFDCF8DE03CDE82E080936F009CC0833492
:2075800071F40091AE011091AF0119DE90E021E0F8010C0120935700E89511247CCE8336C8
:2075A00019F5E090AE01F090AF010091B0011091B10105DEF701E16090E021E00C0120938C
:2075C0005700E895112482E090E0A0E0B0E0E80EF91E0A1F1B1FE092AE01F092AF0100936A
:2075E000B0011093B10157CE8D3661F4E091AE01F091AF0185E080935700E89507B600FCF2
:20760000FDCF49CE823551F4E091AE01F091AF0105911491812FEBDD802F4CC0843421F5FE
:20762000E090AE01F090AF010091B0011091B10116950795F794E794C2DD682FC70169D4DE
:207640008091AE019091AF01A091B001B091B1010296A11DB11D8093AE019093AF01A093D8
:20766000B001B093B10117CE843609F5E090AE01F090AF010091B0011091B101D801C70142
:20768000B695A795979587953CD4B1DD82E090E0A0E0B0E0E80EF91E0A1F1B1FE092AE010A
:2076A000F092AF010093B0011093B10104C08B3111F08FE39CDD83E08093E9009091E8002B
:2076C0008091E8008E778093E80095FF04C010C08EB38823C9F08091E80080FFF9CF809193
:2076E000E8008E778093E80003C08EB3882361F08091E80080FFF9CF84E08093E9008091F1
:20770000E8008B778093E800DF91CF911F910F91FF90EF90DF90CF90BF90AF909F908F90AC
:207720007F906F905F904F9008959091B601892F8F77813249F58091B7018032A1F081328A
:2077400019F5913A09F58091E800877F8093E8008DE091E067E070E00BD28091E8008B770B
:207760008093E8000895913279F48091E800877F8093E8008DE091E067E070E05DD2809192
:20778000E8008E778093E800089582E061EC42E0B5D083E061E842E1B1D084E060E842E1EF
:2077A000ADC084B7877F84BF88E10FB6F89480936000109260000FBE20E880E090E00FB63F
:2077C000F89420936100809361000FBE81E085BF92E095BF3F9A209A559AE1E6F0E02083A1
:2077E000108247985D9A289A109289008AEF8093880090936F0083E080938100F0C0409116
:20780000000850910108109201081092000894B714BE88E10FB6F8948093600010926000D5
:207820000FBE292F30E0F901E270F07091FD18C090FF05C0859194918F5F9F4F81F423FFFF
:207840000FC08091090190910A014817590741F0E0E0F0E0859194918F5F9F4F09F042DC64
:20786000A0DF78941092AD011092AC010CC0DEDC36D38091AC019091AD0181549F4110F00D
:207880001092140141DC80911401882381F78091E00081608093E00025DC80E090E0089598
:2078A000FA01923049F0933061F09130F9F485E191E022E130E01EC087E291E02EE330E04D
:2078C00019C0882329F485E691E024E030E012C0813029F489E691E022E230E00BC0823006
:2078E00029F48DE891E028E130E004C080E090E020E030E091838083C90108958093E9004E
:207900008091EB0081608093EB001092ED006093EC004093ED008091EE00881F8827881F62
:2079200008958091B60188238CF403C08EB38823B1F08091E80082FFF9CF8091E8008B772A
:207940008093E80008958EB3882349F08091E80080FFF9CF8091E8008E778093E800089594
:20796000EF92FF920F931F9345D04CD008ED10E0F80180818F77808380818068808380819B
:207980008F7D808319BC1EBA1092B40180EEE82EF12CF70180818B7F8083F8018081816052
:2079A000808380E060E042E0A9DFE1EEF0E080818E7F8083E2EEF0E0808181608083808144
:2079C00088608083F70180818E7F8083F8018081806180831F910F91FF90EF900895E7ED06
:2079E000F0E08081816080838AE482BF81E08093B501B6CFE8EDF0E080818E7F808310921C
:207A0000E20008951092DA001092E10008951F920F920FB60F9211242F933F934F935F93F6
:207A20006F937F938F939F93AF93BF93EF93FF938091DA0080FF1BC08091D80080FF17C0B2
:207A40008091DA008E7F8093DA008091D90080FF0BC080E189BD82E189BD09B400FEFDCF36
:207A600081E08EBB3BD203C019BC1EBA37D28091E10080FF17C08091E20080FF13C0809138
:207A8000E2008E7F8093E2008091E20080618093E2008091D80080628093D80019BC85E049
:207AA0008EBB1CD28091E10084FF2CC08091E20084FF28C080E189BD82E189BD09B400FEC5
:207AC000FDCF8091D8008F7D8093D8008091E1008F7E8093E1008091E2008F7E8093E20012
:207AE0008091E20081608093E2008091B401882331F48091E30087FD02C081E001C084E067
:207B00008EBBECD18091E10083FF21C08091E20083FF1DC08091E100877F8093E10082E06A
:207B20008EBB1092B4018091E1008E7F8093E1008091E2008E7F8093E2008091E2008061E9
:207B40008093E20080E060E042E0D8DEC7D1FF91EF91BF91AF919F918F917F916F915F9130
:207B60004F913F912F910F900FBE0F901F9018959C014091BC015091BD014617570718F49D
:207B8000F90190E044C06115710511F0AB01F8CF8091E8008E778093E80040E050E0F0CF0F
:207BA0008EB3882309F444C0853009F443C08091E80083FF02C081E008958091E80082FD70
:207BC00031C08091E80080FF22C08091F3009091F200782F60E0292F30E0262B372B07C07A
:207BE00081918093F100415050402F5F3F4F4115510519F02830310598F390E02830310566
:207C000009F491E08091E8008E778093E8004115510531F6992321F605C08EB3882341F075
:207C2000853041F08091E80082FFF7CF80E0089582E0089583E008959C016115710529F47C
:207C40008091E8008B778093E800F90126C08EB3882391F1853091F18091E80083FF02C06C
:207C600081E008958091E80082FFF1CF06C08091F10081936150704059F02091F300809191
:207C8000F200322F20E090E0822B932B892B79F78091E8008B778093E80061157105B9F601
:207CA00005C08EB3882341F0853041F08091E80080FFF7CF80E0089582E0089583E00895C2
:207CC0000F931F93DF93CF9300D0CDB7DEB7E6EBF1E08091F100819381E0EE3BF807C9F792
:207CE00024DD8091E80083FFE4C08091B6019091B701953009F46DC0963040F4913081F1A7
:207D0000913070F0933009F0D4C02AC0983009F4A3C0993009F4B2C0963009F0CAC07CC023
:207D2000803809F4C6C0823809F0C3C08091BA0187708093E9008091EB001092E9002091DB
:207D4000E800277F2093E80090E025E0969587952A95E1F781708093F1001092F10087C0D8
:207D6000882319F0823009F0A4C08F71823009F0A0C08091B801882331F52091BA01277097
:207D800009F497C02093E9008091EB0080FF1BC0933021F48091EB00806213C08091EB0018
:207DA00080618093EB0081E090E002C0880F991F2A95E2F78093EA001092EA008091EB00E5
:207DC00088608093EB001092E9008091E800877F51C0882309F06DC01091B8011F770FB79B
:207DE000F8948091E800877F8093E8009ADD8091E80080FFFCCF8091E3008078812B809398
:207E0000E30080688093E300112311F482E001C083E08EBB0FBF4DC08058823008F049C033
:207E20008091B8019091B9016091BA01AE014F5F5F4F36DDBC01009709F43BC08091E8008E
:207E4000877F8093E80089819A8192DE8091E8008B778093E8002DC0803859F58091E800AA
:207E6000877F8093E8008091B4018093F1008091E8008E778093E80054DD1BC08823C9F4CA
:207E80009091B8019230A8F48091E800877F8093E8009093B40145DD8091B401882331F420
:207EA0008091E30087FD02C081E001C084E08EBB6CDC8091E80083FF0AC08091EB0080624E
:207EC0008093EB008091E800877F8093E8000F900F90CF91DF911F910F91089508951F9360
:207EE0008EB3882361F01091E9001092E9008091E80083FF01C0E4DE17701093E9001F916F
:207F00000895F999FECF92BD81BDF89A992780B50895262FF999FECF1FBA92BD81BD20BDBD
:207F20000FB6F894FA9AF99A0FBE01960895F894FFCF4341544552494E4100777700080031
:207F40000000000000080112011001020000084123360001000201000109023E00020100FF
:207F600080320904000001020201000524001001042402040524060001070582030800FF0C
:207F800009040100020A000000070504021000010705830210000104030904220341007216
:207FA000006400750069006E006F0020004C0065006F006E006100720064006F0000001836
:1A7FC00003410072006400750069006E006F0020004C004C004300000000D7
:00000001FF
